{"abi":[{"type":"constructor","inputs":[{"name":"o","type":"address","internalType":"address"}],"stateMutability":"nonpayable"},{"type":"function","name":"get","inputs":[{"name":"_id","type":"uint256","internalType":"uint256"}],"outputs":[{"name":"","type":"bytes","internalType":"bytes"}],"stateMutability":"view"},{"type":"function","name":"id","inputs":[],"outputs":[{"name":"","type":"uint256","internalType":"uint256"}],"stateMutability":"view"},{"type":"function","name":"save","inputs":[{"name":"b","type":"bytes","internalType":"bytes"}],"outputs":[{"name":"","type":"uint256","internalType":"uint256"}],"stateMutability":"nonpayable"},{"type":"function","name":"setOwner","inputs":[{"name":"o","type":"address","internalType":"address"}],"outputs":[],"stateMutability":"nonpayable"},{"type":"event","name":"Blob","inputs":[{"name":"id","type":"uint256","indexed":true,"internalType":"uint256"},{"name":"b","type":"bytes","indexed":false,"internalType":"bytes"}],"anonymous":false}],"bytecode":{"object":"0x608060405234801561001057600080fd5b506040516105a93803806105a983398101604081905261002f91610054565b600080546001600160a01b0319166001600160a01b0392909216919091179055610084565b60006020828403121561006657600080fd5b81516001600160a01b038116811461007d57600080fd5b9392505050565b610516806100936000396000f3fe608060405234801561001057600080fd5b506004361061004c5760003560e01c806313af4035146100515780639507d39a146100665780639c597f5a1461008f578063af640d0f146100b0575b600080fd5b61006461005f36600461021e565b6100b9565b005b61007961007436600461024e565b6100f2565b6040516100869190610267565b60405180910390f35b6100a261009d3660046102b6565b610194565b604051908152602001610086565b6100a260015481565b6000546001600160a01b031633146100d057600080fd5b600080546001600160a01b0319166001600160a01b0392909216919091179055565b600081815260026020526040902080546060919061010f90610328565b80601f016020809104026020016040519081016040528092919081815260200182805461013b90610328565b80156101885780601f1061015d57610100808354040283529160200191610188565b820191906000526020600020905b81548152906001019060200180831161016b57829003601f168201915b50505050509050919050565b600080546001600160a01b031633146101ac57600080fd5b60018054600091826101bd83610362565b919050559050807fc9ad41baf6f932404a30267c4d7b5159039d5c7beb2278edffca9d5ab091e36185856040516101f5929190610389565b60405180910390a2600081815260026020526040902061021684868361041f565b509392505050565b60006020828403121561023057600080fd5b81356001600160a01b038116811461024757600080fd5b9392505050565b60006020828403121561026057600080fd5b5035919050565b60006020808352835180602085015260005b8181101561029557858101830151858201604001528201610279565b506000604082860101526040601f19601f8301168501019250505092915050565b600080602083850312156102c957600080fd5b823567ffffffffffffffff808211156102e157600080fd5b818501915085601f8301126102f557600080fd5b81358181111561030457600080fd5b86602082850101111561031657600080fd5b60209290920196919550909350505050565b600181811c9082168061033c57607f821691505b60208210810361035c57634e487b7160e01b600052602260045260246000fd5b50919050565b60006001820161038257634e487b7160e01b600052601160045260246000fd5b5060010190565b60208152816020820152818360408301376000818301604090810191909152601f909201601f19160101919050565b634e487b7160e01b600052604160045260246000fd5b601f82111561041a576000816000526020600020601f850160051c810160208610156103f75750805b601f850160051c820191505b8181101561041657828155600101610403565b5050505b505050565b67ffffffffffffffff831115610437576104376103b8565b61044b836104458354610328565b836103ce565b6000601f84116001811461047f57600085156104675750838201355b600019600387901b1c1916600186901b1783556104d9565b600083815260209020601f19861690835b828110156104b05786850135825560209485019460019092019101610490565b50868210156104cd5760001960f88860031b161c19848701351681555b505060018560011b0183555b505050505056fea264697066735822122037c79d3e622a69fc7731e4a317880b77f65199964a91c732214e5ab5cd710a1164736f6c63430008170033","linkReferences":{}},"methodIdentifiers":{"get(uint256)":"9507d39a","id()":"af640d0f","save(bytes)":"9c597f5a","setOwner(address)":"13af4035"},"id":22}