{"abi":[{"type":"constructor","inputs":[{"name":"o","type":"address","internalType":"address"}],"stateMutability":"nonpayable"},{"type":"function","name":"get","inputs":[{"name":"_id","type":"uint256","internalType":"uint256"}],"outputs":[{"name":"","type":"bytes","internalType":"bytes"}],"stateMutability":"view"},{"type":"function","name":"save","inputs":[{"name":"b","type":"bytes","internalType":"bytes"}],"outputs":[],"stateMutability":"nonpayable"},{"type":"function","name":"setOwner","inputs":[{"name":"o","type":"address","internalType":"address"}],"outputs":[],"stateMutability":"nonpayable"}],"bytecode":{"object":"0x608060405234801561001057600080fd5b5060405161052138038061052183398101604081905261002f91610054565b600080546001600160a01b0319166001600160a01b0392909216919091179055610084565b60006020828403121561006657600080fd5b81516001600160a01b038116811461007d57600080fd5b9392505050565b61048e806100936000396000f3fe608060405234801561001057600080fd5b50600436106100415760003560e01c806313af4035146100465780639507d39a1461005b5780639c597f5a14610084575b600080fd5b6100596100543660046101c6565b610097565b005b61006e6100693660046101f6565b6100d0565b60405161007b919061020f565b60405180910390f35b61005961009236600461025e565b610172565b6000546001600160a01b031633146100ae57600080fd5b600080546001600160a01b0319166001600160a01b0392909216919091179055565b60008181526002602052604090208054606091906100ed906102d0565b80601f0160208091040260200160405190810160405280929190818152602001828054610119906102d0565b80156101665780601f1061013b57610100808354040283529160200191610166565b820191906000526020600020905b81548152906001019060200180831161014957829003601f168201915b50505050509050919050565b6000546001600160a01b0316331461018957600080fd5b818160026000600160008154809291906101a29061030a565b91905055815260200190815260200160002091826101c1929190610397565b505050565b6000602082840312156101d857600080fd5b81356001600160a01b03811681146101ef57600080fd5b9392505050565b60006020828403121561020857600080fd5b5035919050565b60006020808352835180602085015260005b8181101561023d57858101830151858201604001528201610221565b506000604082860101526040601f19601f8301168501019250505092915050565b6000806020838503121561027157600080fd5b823567ffffffffffffffff8082111561028957600080fd5b818501915085601f83011261029d57600080fd5b8135818111156102ac57600080fd5b8660208285010111156102be57600080fd5b60209290920196919550909350505050565b600181811c908216806102e457607f821691505b60208210810361030457634e487b7160e01b600052602260045260246000fd5b50919050565b60006001820161032a57634e487b7160e01b600052601160045260246000fd5b5060010190565b634e487b7160e01b600052604160045260246000fd5b601f8211156101c1576000816000526020600020601f850160051c810160208610156103705750805b601f850160051c820191505b8181101561038f5782815560010161037c565b505050505050565b67ffffffffffffffff8311156103af576103af610331565b6103c3836103bd83546102d0565b83610347565b6000601f8411600181146103f757600085156103df5750838201355b600019600387901b1c1916600186901b178355610451565b600083815260209020601f19861690835b828110156104285786850135825560209485019460019092019101610408565b50868210156104455760001960f88860031b161c19848701351681555b505060018560011b0183555b505050505056fea2646970667358221220abab0e6f65b5715dd95bab685529121ec5fef5f9e20fdbfb8dc06da85644971964736f6c63430008170033","linkReferences":{}},"methodIdentifiers":{"get(uint256)":"9507d39a","save(bytes)":"9c597f5a","setOwner(address)":"13af4035"},"id":22}